:100000000C944A000C9467000C9467000C946700F1
:100010000C9467000C9467000C9467000C946700C4
:100020000C9467000C9467000C9467000C946700B4
:100030000C9467000C9467000C9467000C946700A4
:100040000C9467000C9467000C9467000C94670094
:100050000C94670041A042A1E045A3A4A5A64BA72C
:100060004D484FA8504354A9AA58E1ABACE2ADAEFD
:10007000ADAFB0B161B2B3B4E365B6B7B8B9BABBAE
:10008000BCBD6FBE7063BF79E478E5C0C1E6C2C392
:10009000C4C5C6C711241FBECFE5D4E0DEBFCDBFA7
:1000A00010E0A0E6B0E0E2E1F9E002C005900D92B8
:1000B000AE36B107D9F710E0AEE6B0E001C01D9250
:1000C000A338B107E1F70E9489000C9487040C94CF
:1000D00000001ABAD89A0895CF93DF93EC0180E616
:1000E00090E060E040E00E94540187E690E060E02C
:1000F00041E00E945401CE010E94D60280917D0011
:1001000090917E0067E041E00E948B01DF91CF91EA
:100110000895EF92FF92CF93DF930E94BB010E945C
:1001200069000E94BA000E946B0290937E00809347
:100130007D0078940000349BFDCF84B180936F00E4
:1001400095B190936E0020E0E9017E01E80EF11C6C
:10015000F0928000E0927F00349A0E946C00EACF17
:1001600083B7896083BF89B7826089BF88B782609F
:1001700088BF08953F983E98389839983A983B98A8
:100180003C98379A86B1876086B9359A369A089531
:1001900087B3806F87BB88B38F7088BB0895C09A80
:1001A00082E08A95F1F700C0C09808951F9387B345
:1001B0008F7087BB88B3806F88BBC19AC09A0000DC
:1001C000000016B3C098000000000E94CF0000009D
:1001D000000017FDF3CFC1981F9108951F93182FAA
:1001E0000E94C800812F82958F701F7080FDC49A75
:1001F000869580FDC59A869580FDC69A869509F0FC
:10020000C79A0E94CF000E94C80010FDC49A16959C
:1002100010FDC59A169510FDC69A169509F0C79A55
:100220000E94CF0087B38F7087BB88B38F7088BB65
:100230001F910895DF93CF930F92CDB7DEB78983D7
:100240000E94D60089810E94EE000F90CF91DF912D
:100250000895DF93CF930F92CDB7DEB789830E94C5
:10026000D600C29A8981803C30F0805CE82FF0E0B3
:10027000EC5AFF4F84910E94EE00C2980F90CF91EC
:10028000DF910895613009F4805C80680E941A0152
:1002900008951F93182F862F642F0E944201812FEB
:1002A0000E9429011F910895EF92FF920F931F93CF
:1002B000DF93CF930F92CDB7DEB7182F862F642F21
:1002C00099830E9442019981612F792F8B0102C08D
:1002D0000E942901F80181918F018823C9F70F90AD
:1002E000CF91DF911F910F91FF90EF900895EF92C2
:1002F000FF92CF93DF93E82EE7017E01F92EE7010D
:1003000002C00E94290189918823D9F7DF91CF91FA
:10031000FF90EF9008951F93CF93DF93EC01862F0A
:10032000642F0E944201209759F010E003C00E9400
:1003300029011F5FFE01E10FF11D80818823B9F7BC
:10034000DF91CF911F9108951F93CF93DF93EC011D
:10035000862F642F0E94420110E003C00E942901F1
:100360001F5FFE01E10FF11D84918823B9F7DF9132
:10037000CF911F9108951F938FEF90E7A2E08150D6
:100380009040A040E1F700C0000087B3876087BBC2
:1003900088B3887F88BB0E94C80013E088B380635D
:1003A00088BB0E94CF00AFE0B7E21197F1F700C021
:1003B0000000115099F70E94D6000E94C800C59A0B
:1003C0000E94CF0088E20E941A018CE00E941A016C
:1003D00086E00E941A0182E00E941A0181E00E94D8
:1003E0001A011F91089588E00E941A0108958CE077
:1003F0000E941A01089581E00E941A0108958DE07B
:100400000E941A0108958EE00E941A0108958FE05B
:100410000E941A0108958CE00E941A01089586E056
:100420000E941A01089584E00E941A01089580E153
:100430000E941A01089584E10E941A0108950F9301
:100440001F93082F10E004C080E10E941A011F5F73
:100450001017D0F31F910F9108950F931F93082F3A
:1004600010E004C084E10E941A011F5F1017D0F34E
:100470001F910F91089588E10E941A0108958CE15F
:100480000E941A0108950F931F93082F10E004C0D3
:1004900088E10E941A011F5F1017D0F31F910F917E
:1004A00008950F931F93082F10E004C08CE10E9461
:1004B0001A011F5F1017D0F31F910F91089585E067
:1004C0000E941A01089587E00E941A01089582E0AF
:1004D0000E941A01089581E790E00895805D80935D
:1004E000710081E08093700010927200089590E096
:1004F00002C09F5F8A508A30E0F7992311F0905D27
:1005000001C090E390937100805D8093720082E05F
:100510008093700010927300089590E002C09F5F76
:1005200084568436E0F7992311F0905D01C090E382
:100530009093710090E002C09F5F8A508A30E0F78C
:10054000992311F0905D01C090E390937200805D5B
:100550008093730083E0809370001092740008957C
:1005600020E003C02F5F8456904084369105D0F779
:10057000222311F0205D01C020E32093710020E0D0
:1005800002C02F5F0A978A309105D8F7222311F015
:10059000205D01C020E320937200C0968093730019
:1005A00083E08093700010927400089520E003C0EF
:1005B0002F5F885E934033E0883E9307C8F722237D
:1005C00011F0205D01C020E32093710020E003C002
:1005D0002F5F8456904084369105D0F7222311F086
:1005E000205D01C020E32093720020E002C02F5F55
:1005F0000A978A309105D8F7222311F0205D01C0B7
:1006000020E320937300C0968093740084E080936D
:10061000700010927500089520E003C02F5F805194
:10062000974237E280319307C8F7222311F0205D0B
:1006300001C020E32093710020E003C02F5F885E9B
:10064000934033E0883E9307C8F7222311F0205DE2
:1006500001C020E32093720020E003C02F5F845686
:10066000904084369105D0F7222311F0205D01C01F
:1006700020E32093730020E002C02F5F0A978A30A6
:100680009105D8F7222311F0205D01C020E32093CB
:100690007400C0968093750085E08093700010927E
:1006A0007600089590E002C09F5F84568436E0F79C
:1006B000992311F0905D01C090E39093710090E058
:1006C00002C09F5F8A508A30E0F7992311F0905D55
:1006D00001C090E390937200805D8093730083E08B
:1006E0008093700010927400089520E003C02F5F83
:1006F0008051974237E280319307C8F7222311F0E7
:10070000205D01C020E32093710020E003C02F5F33
:10071000885E934033E0883E9307C8F7222311F0A8
:10072000205D01C020E32093720020E003C02F5F12
:100730008456904084369105D0F7222311F0205D35
:1007400001C020E32093730020E002C02F5F0A97CE
:100750008A309105D8F7222311F0205D01C020E3F3
:1007600020937400C0968093750085E0809370009C
:1007700010927600089520E005C02F5F60507A4CFB
:100780008A499B4360303AEC73073AE983073BE3BD
:10079000930798F7222311F0205D01C020E32093F6
:1007A000710020E005C02F5F6050714E854F95406D
:1007B000603031EE730735EF830735E0930798F724
:1007C000222311F0205D01C020E32093720020E07D
:1007D00005C02F5F6058764988499040603836E9F7
:1007E000730738E9830730E0930798F7222311F065
:1007F000205D01C020E32093730020E005C02F5F3F
:10080000605472448F409040603432E473073FE09C
:10081000830730E0930798F7222311F0205D01C091
:1008200020E32093740020E005C02F5F605A7648D3
:1008300081409040603A36E8730731E0830730E04A
:10084000930798F7222311F0205D01C020E3209345
:10085000750020E005C02F5F6051774280409040D6
:10086000603137E2730730E0830730E0930798F791
:10087000222311F0205D01C020E32093760020E0C8
:1008800005C02F5F685E734080409040683E33E053
:10089000730730E0830730E0930798F7222311F0C5
:1008A000205D01C020E32093770020E005C02F5F8A
:1008B0006456704080409040643671058105910512
:1008C000B0F7222311F0205D01C020E320937800CF
:1008D00020E005C02F5F6A507040804090406A3031
:1008E000710581059105B0F7222311F0205D01C04B
:1008F00020E320937900605D7F4F8F4F9F4F60937F
:100900007A008AE08093700010927B000895F8943A
:02091000FFCF17
:0E091200436F756E743A00566F6C743A0000B5
:00000001FF
