S00E00005465737430392E737265630D
S113000012C024C023C022C021C020C01FC01EC0F3
S11300101DC01CC01BC01AC019C018C017C016C010
S113002015C014C013C011241FBECFE5D4E0DEBF39
S1130030CDBF10E0A0E6B0E0E6E7F1E002C0059035
S11300400D92A637B107D9F783D093C0D9CF939A2D
S113005095E89A95F1F7000092B39F7092BB92B322
S11300608295807F892B82BB939885E88A95F1F7E6
S113007000000895CF93C82F611102C0929801C067
S1130080929A8C2F82958F70E2DF8C2FE0DFCF91D4
S1130090089561E0EFDF089590E4699F800D1124D5
S11300A060E08068E7DF08958FE295E70197F1F754
S11300B000C0000083E0CBDF8FE39FE10197F1F7FD
S11300C000C0000083E0C3DF87EC90E00197F1F704
S11300D000C0000083E0BBDF8FEC97E00197F1F7ED
S11300E000C0000082E0B3DF8FEC97E00197F1F7E6
S11300F000C0000060E088E2BDDF8FEC97E001976C
S1130100F1F700C0000060E08CE0B4DF8FEC97E012
S11301100197F1F700C0000060E086E0ABDF8FECF0
S113012097E00197F1F700C000000895CF93DF93A3
S1130130EC018881882329F02196ABDF8991811114
S1130140FCCFDF91CF91089512BA8FEF81BB089550
S1130150FBDFAADF60E070E080E09EDF80E690E0F5
S1130160E5DF61E070E082E097DF8DE690E0DEDFBE
S1090170FFCFF894FFCF5D
S113017648656C6C6F20576F726C642100537472FF
S1090186696E67203200DF
S9030000FC
