:1000000012C02CC02BC02AC029C028C027C026C0BF
:1000100025C024C023C022C021C020C020C01EC0D3
:100020001DC01CC01BC011241FBECFE5D4E0DEBF25
:10003000CDBF10E0A0E6B0E0E2E9F4E002C0059038
:100040000D92A238B107D9F710E0A2E8B0E001C0E4
:100050001D92A039B107E1F7F8D019C2D1CF1F9294
:100060000F920FB60F9211242F933F934F935F93EC
:100070008F939F93AF93BF9387B190E08F709070F1
:10008000009709F1209188003091890040918A0001
:1000900050918B0084B195B1A0E0B0E0820F931F26
:1000A000A41FB51F8093880090938900A0938A00B5
:1000B000B0938B0087B1807F87B9809183008F5F79
:1000C0008093830021C020918C0030918D0040915D
:1000D0008E0050918F0084B195B1A0E0B0E0820F06
:1000E000931FA41FB51F80938C0090938D00A09345
:1000F0008E00B0938F0087B1807F816087B9809137
:1001000082008F5F80938200BF91AF919F918F910A
:100110005F914F913F912F910F900FBE0F901F90C5
:1001200018959098929A92B39F7092BB22B3982F91
:10013000907F922B92BB95E89A95F1F700009298E8
:1001400095E89A95F1F70000929A92B39F7092BB4E
:1001500092B38295807F892B82BB85E88A95F1F7DF
:100160000000929895E89A95F1F70000089592B3EF
:10017000956092BB92B39F7092BB22B3982F907FF1
:10018000922B92BB95E89A95F1F70000929895E82A
:100190009A95F1F70000929A92B39F7092BB92B336
:1001A0008295807F892B82BB85E88A95F1F70000D4
:1001B000929895E89A95F1F700000895EF92FF92D2
:1001C0000F931F93DF93CF9300D0CDB7DEB7182FD7
:1001D0008CE069837A83A5DF812FA3DF69817A812F
:1001E000462F572F8A0101C0C2DFF80181918F018C
:1001F0008823D1F70F900F90CF91DF911F910F912E
:10020000FF90EF9008958FEF81BB12BA8FE493ECCB
:100210000197F1F700C00000959A9498929A9298ED
:1002200087E893E10197F1F700C0000088E279DFE9
:1002300088E077DF81E075DF95E89A95F1F70000B7
:1002400086E06FDF8CE06DDF0895AF92BF92CF92B2
:10025000DF92EF92FF920F931F93CF93DF9387B1BB
:10026000806C87B986B18E6E86B97894CCDF87EAC8
:1002700091E60197F1F700C0000080E860E670E0C9
:100280009DDF80EC61E770E099DF6AEFE62EF12CEC
:10029000012D112D58EEC52E53E0D52ECAE0D0E029
:1002A00044E6A42EB12C809183008A3F09F04AC015
:1002B000609188007091890080918A0090918B00F4
:1002C00020E03BE040E050E08DD03AE09695879505
:1002D000779567953A95D1F7A8019701B6D03093F5
:1002E0008500209384001092830010928800109261
:1002F000890010928A0010928B0080EC12DF8091AE
:10030000840090918500B6018CD0CB01BE0189D0CC
:10031000805D2DDF8091840090918500B50181D0B2
:10032000CB01BE017ED0805D22DF83ECFADE8091BE
:10033000840090918500BE0174D0CB01BE0171D0C4
:10034000805D15DF809182008A3F09F0ACCF60911B
:100350008C0070918D0080918E0090918F0020E034
:100360003AE040E050E03ED02AE0969587957795B8
:1003700067952A95D1F7A801970167D03093870038
:10038000209386001092820010928C0010928D00B3
:1003900010928E0010928F0089ECC3DE809186004F
:1003A00090918700B6013DD0CB01BE013AD0805D6F
:1003B000DEDE8BECB6DE8091860090918700B50181
:1003C00030D0CB01BE012DD0805DD1DE8091860082
:1003D00090918700BE0125D0CB01BE0122D0805D67
:1003E000C6DE61CF629FD001739FF001829FE00D56
:1003F000F11D649FE00DF11D929FF00D839FF00DA4
:10040000749FF00D659FF00D9927729FB00DE11D4F
:10041000F91F639FB00DE11DF91FBD01CF0111242C
:100420000895AA1BBB1B51E107C0AA1FBB1FA6173B
:10043000B70710F0A61BB70B881F991F5A95A9F78D
:1004400080959095BC01CD010895A1E21A2EAA1BBA
:10045000BB1BFD010DC0AA1FBB1FEE1FFF1FA21774
:10046000B307E407F50720F0A21BB30BE40BF50B71
:10047000661F771F881F991F1A9469F760957095FA
:10048000809590959B01AC01BD01CF010895F89432
:02049000FFCF9C
:10049200564F4C545320202A20414D50455245532B
:1004A2000020202E202020202A20202E2020202044
:0204B200200028
:00000001FF
