S01000004D6567615F4C43442E7372656368
S11300000C944A000C945C000C945C000C945C000E
S11300100C945C000C945C000C945C000C945C00EC
S11300200C945C000C945C000C945C000C945C00DC
S11300300C945C000C945C000C945C000C945C00CC
S11300400C945C000C945C000C945C000C945C00BC
S11300500C945C0041A042A1E045A3A4A5A64BA733
S11300604D484FA8504354A9AA58E1ABACE2ADAEF9
S1130070ADAFB0B161B2B3B4E365B6B7B8B9BABBAA
S1130080BCBD6FBE7063BF79E478E5C0C1E6C2C38E
S1130090C4C5C6C711241FBECFE5D4E0DEBFCDBFA3
S11300A020E0A0E6B0E001C01D92A037B207E1F75E
S11300B00E947C010C949F010C9400008FEF8ABB7A
S11300C01BBA90EE97BB9FE198BB84BB15BA90EB2B
S11300D091BB9FE492BB9CE695BD12BC99B799BFB6
S11300E083BD80E888B92FEF82E597E021508040F6
S11300F09040E1F700C000000E941D01789408952B
S113010081B38F6081BB82B3807F82BB0895C49A20
S113011085E08A95F1F70000C4980895CF9381B3E0
S1130120807F81BB82B38F6082BBC39AC49A000074
S11301300000C0B3C498000000000E9487000000C3
S11301400000C3FDF3CFC398CF910895CF93DF93FD
S1130150C82F0E9480009C2F92959F70DC2FDF7027
S113016090FD909A969590FD919A969590FD929A0D
S1130170969509F0939A0E9487000E948000C0FD22
S1130180909A8D2F869580FD919A869580FD929AFE
S1130190869509F0939A0E94870081B3807F81BB82
S11301A082B3807F82BBDF91CF910895CF93DF9399
S11301B01F92CDB7DEB789830E948E0089810F908C
S11301C0DF91CF910C94A600CF93DF931F92CDB70C
S11301D0DEB789830E948E00C29A8981803C30F008
S11301E0805CE82FF0E0EC5AFF4F84910E94A60057
S11301F0C2980F90DF91CF910895613009F4805C2B
S113020080680C94D6001F93CF93DF93EC01862F64
S1130210642F0E94FD00209729F40BC00E94E40083
S11302201F5F01C010E0FE01E10FF11D808181110B
S1130230F5CFDF91CF911F910895CF932FEF81EEEA
S113024094E0215080409040E1F700C0000087B363
S11302508C6187BB88B3837E88BB0E948000C3E027
S113026082B3836082BB0E9487008FE19EE4019782
S1130270F1F700C00000C15099F70E948E000E945F
S11302808000919A0E94870088E20E94D6008CE048
S11302900E94D60086E00E94D60082E00E94D6002A
S11302A081E0CF910C94D60080E690E0089590E030
S11302B002C09F5F84568436E0F7992319F0905D5D
S11302C020E302C020E290E29093600090E002C03C
S11302D09F5F8A508A30E0F7992311F0905D01C046
S11302E0922F90936100805D8093620083E08093FD
S11302F06C001092630008950E945E000E945401F5
S113030090936E0080936D0080916F000E9457015E
S113031040E065E080916D0090916E000E940301C1
S113032080916F008F5F80936F002FEF83EC99E0D3
S1130330215080409040E1F700C00000E5CFF894E0
S1050340FFCFE9
S9030000FC
