:100000000C944A000C9467000C9467000C946700F1
:100010000C9467000C9467000C9467000C946700C4
:100020000C9467000C9467000C9467000C946700B4
:100030000C9467000C9467000C9476000C94670095
:100040000C9467000C9467000C9467000C94690092
:100050000C94670041A042A1E045A3A4A5A64BA72C
:100060004D484FA8504354A9AA58E1ABACE2ADAEFD
:10007000ADAFB0B161B2B3B4E365B6B7B8B9BABBAE
:10008000BCBD6FBE7063BF79E478E5C0C1E6C2C392
:10009000C4C5C6C711241FBECFE5D4E0DEBFCDBFA7
:1000A00010E0A0E6B0E0E8E2FCE002C005900D92AE
:1000B000AE36B107D9F720E0AEE6B0E001C01D9240
:1000C000A338B207E1F70E9457040C9412060C946F
:1000D00000001F920F920FB60F921124F894369AD7
:1000E00078940F900FBE0F901F9018951F920F924B
:1000F0000FB60F9211242F938F939F93F89424B1EE
:1001000020936E0085B180936F00082E000C990B30
:10011000982F8827820F911D27FD9A9590937F0035
:1001200080937E008091800082608093800078942C
:100130009F918F912F910F900FBE0F901F90189548
:100140001ABAD89A089560917E0070917F0080E07D
:1001500090E00E9417052FE832EC45E950E40E9438
:10016000A50520E030EC4FE754E40E94760420E03F
:1001700030E048EC52E40E94A5050E94E804709328
:1001800082006093810040E060E080E690E00E94A1
:10019000760141E060E087E690E00E947601809180
:1001A0008100909182000E949A0240E067E0809175
:1001B0007C0090917D000E94970180918100909138
:1001C00082000E94E30241E066E080917C00909111
:1001D0007D000C94970183B78D6083BF89B78260DF
:1001E00089BF88B7826088BF089587B3806F87BB57
:1001F00088B38F7088BB0895C09A82E08A95F1F722
:1002000000C0C0980895CF9387B38F7087BB88B321
:10021000806F88BBC19AC09A00000000C6B3C09826
:10022000000000000E94FC0000000000C7FDF3CFAA
:10023000C198CF910895CF93DF93D82F0E94F500F6
:100240008D2F82958F70CD2FCF7080FDC49A8695AB
:1002500080FDC59A869580FDC69A869509F0C79A55
:100260000E94FC000E94F500D0FDC49A8C2F869558
:1002700080FDC59A869580FDC69A869509F0C79A35
:100280000E94FC0087B38F7087BB88B38F7088BBD8
:10029000DF91CF910895CF93C82F0E9403018C2F37
:1002A000CF910C941B01CF93C82F0E940301C29AD7
:1002B000C03C30F0E0E4EC0FF0E0EC5AFF4FC491AA
:1002C0008C2F0E941B01C298CF910895613009F4D0
:1002D000805C80680C944B01CF93C82F862F642FCD
:1002E0000E9466018C2FCF910C9453010F931F93A2
:1002F000CF93DF938C01862F642F0E946601E80163
:100300008991882319F00E945301FACFDF91CF9190
:100310001F910F910895CF93DF93EC01899188236A
:1003200019F00E945301FACFDF91CF9108950F93F6
:100330001F93CF938C01862F642F0E9466010115B5
:10034000110559F0C0E0F801EC0FF11D8081882300
:1003500021F00E945301CF5FF6CFCF911F910F91F3
:1003600008950F931F93CF938C01862F642F0E94C3
:100370006601C0E0F801EC0FF11D8491882329F09B
:1003800084910E945301CF5FF5CFCF911F910F91C0
:100390000895CF932FEF80E792E021508040904066
:1003A000E1F700C0000087B3876087BB88B3887F10
:1003B00088BB0E94F500C3E088B3806388BB0E94BD
:1003C000FC008FE097E20197F1F700C00000C150F8
:1003D00099F70E9403010E94F500C59A0E94FC0053
:1003E00088E20E944B018CE00E944B0186E00E9453
:1003F0004B0182E00E944B0181E0CF910C944B01B4
:1004000088E00C944B0181E00C944B018DE00C943E
:100410004B018EE00C944B018FE00C944B018CE06F
:100420000C944B010C940F0286E00C944B0184E079
:100430000C944B0180E10C944B0184E10C944B0132
:10044000CF93DF93D82FC0E0CD1729F080E10E9431
:100450004B01CF5FF9CFDF91CF910895CF93DF9319
:10046000D82FC0E0CD1729F084E10E944B01CF5F67
:10047000F9CFDF91CF91089588E10C944B018CE185
:100480000C944B01CF93DF93D82FC0E0CD1729F008
:1004900088E10E944B01CF5FF9CFDF91CF910895A2
:1004A000CF93DF93D82FC0E0CD1729F08CE10E94C5
:1004B0004B01CF5FF9CFDF91CF91089585E00C9488
:1004C0004B0187E00C944B0182E00C944B0180E7D8
:1004D00090E00895805DE0E7F0E080831182089568
:1004E00090E08A3018F09F5F8A50FBCF905D909328
:1004F0007000805D8093710010927200089520E07A
:100500008436910520F02F5F84569109F9CF205D44
:100510002093700020E08A30910518F02F5F0A9731
:10052000FACF205D20937100C096809372001092E4
:100530007300089520E0883E33E0930720F02F5F9A
:10054000885E9340F8CF205D2093700020E08436D1
:10055000910520F02F5F84569109F9CF205D2093FB
:10056000710020E08A30910518F02F5F0A97FACFCA
:10057000205D20937200C0968093730010927400E7
:100580000895843640F02CE9280F2436B0F028E393
:10059000280F92E013C090E39093700090E08A30AF
:1005A00018F09F5F8A50FBCF905D90937100805D43
:1005B0008093720010927300089591E0905D822FF5
:1005C000EBCF0C94C10220E0803137E2930720F09A
:1005D0002F5F80519742F8CF205D2093700020E07C
:1005E000883E33E0930720F02F5F885E9340F8CF7A
:1005F000205D2093710020E08436910520F02F5F6C
:1006000084569109F9CF205D2093720020E08A3052
:10061000910518F02F5F0A97FACF205D20937300A1
:10062000C096809374001092750008950C94E302B4
:1006300020E061153AEC73073AE983073BE393073F
:1006400028F02F5F7A5C8A499B43F3CF205D20938B
:10065000700020E0611531EE730735EF830735E058
:10066000930728F02F5F715E854F9540F3CF205D93
:100670002093710020E0603836E9730738E983077A
:10068000910530F02F5F6058764988499109F3CF82
:10069000205D2093720020E0603432E473073FE075
:1006A0008307910530F02F5F605472448F409109A9
:1006B000F3CF205D2093730020E0603A36E87307A3
:1006C00031E08307910530F02F5F605A7648814012
:1006D0009109F3CF205D2093740020E0603137E270
:1006E00073078105910530F02F5F605177428109D2
:1006F0009109F4CF205D2093750020E0683E33E03F
:1007000073078105910530F02F5F685E73408109A2
:100710009109F4CF205D2093760020E064367105C6
:100720008105910530F02F5F6456710981099109A7
:10073000F5CF205D2093770020E06A3071058105B8
:10074000910530F02F5F6A50710981099109F5CF49
:10075000205D20937800DC01CB01C096A11DB11D66
:100760008093790010927A0008953F983E9A3898C5
:1007700039983A983B983C98379A86B1876086B901
:10078000339A0895C09A95E89A95F1F7000098B3C6
:100790009F7098BB98B38295807F892B88BBC09847
:1007A00085E88A95F1F700000895CF93C82F61116D
:1007B00002C0C29801C0C29A8C2F82958F700E948D
:1007C000C2038C2FCF910C94C20361E00C94D5032B
:1007D00090E4699F800D112460E080680C94D5033B
:1007E00060E081E00E94D50387EB9BE00197F1F781
:1007F00000C0000008950F931F93CF938C01C0E0B9
:10080000F801EC0FF11D8081882321F00E94E5039F
:10081000CF5FF6CFCF911F910F9108958FE295E7AB
:100820000197F1F700C0000083E00E94C2038FE34C
:100830009FE10197F1F700C0000083E00E94C2032E
:1008400087EC90E00197F1F700C0000083E00E9480
:10085000C2038FEC97E00197F1F700C0000082E03F
:100860000E94C2038FEC97E00197F1F700C00000EF
:1008700060E088E20E94D5038FEC97E00197F1F7E2
:1008800000C0000060E08CE00E94D5038FEC97E090
:100890000197F1F700C0000060E086E00E94D503F8
:1008A0008FEC97E00197F1F700C0000008950E94D7
:1008B000C9010E94A0000E94EB000E94B5030E94A3
:1008C000670290937D0080937C008FE48CBF12BE02
:1008D000789400008091800081FFFBCF0E94A300EC
:1008E000809180008D7F80938000F3CF0E948A04E6
:1008F0000C946B050E94640558F00E945D0540F061
:1009000029F45F3F29F00C94540551110C949F0574
:100910000C945A050E947C0568F39923B1F3552382
:1009200091F3951B550BBB27AA2762177307840702
:1009300038F09F5F5F4F220F331F441FAA1FA9F398
:1009400035D00E2E3AF0E0E832D091505040E69586
:10095000001CCAF72BD0FE2F29D0660F771F881FE7
:10096000BB1F261737074807AB07B0E809F0BB0BDA
:10097000802DBF01FF2793585F4F3AF09E3F5105EE
:1009800078F00C9454050C949F055F3FE4F3983E77
:10099000D4F3869577956795B795F7959F5FC9F7D7
:1009A000880F911D9695879597F90895E1E0660F58
:1009B000771F881FBB1F621773078407BA0720F0D1
:1009C000621B730B840BBA0BEE1F88F7E09508953A
:1009D0000E94840588F09F5798F0B92F9927B75146
:1009E000B0F0E1F0660F771F881F991F1AF0BA95D3
:1009F000C9F714C0B13091F00E949E05B1E008958E
:100A00000C949E05672F782F8827B85F39F0B93F7F
:100A1000CCF3869577956795B395D9F73EF4909585
:100A20008095709561957F4F8F4F9F4F0895E89403
:100A300009C097FB3EF490958095709561957F4F26
:100A40008F4F9F4F9923A9F0F92F96E9BB279395D4
:100A5000F695879577956795B795F111F8CFFAF4E4
:100A6000BB0F11F460FF1BC06F5F7F4F8F4F9F4F15
:100A700016C0882311F096E911C0772321F09EE873
:100A8000872F762F05C0662371F096E8862F70E0D9
:100A900060E02AF09A95660F771F881FDAF7880FB3
:100AA0009695879597F9089597F99F6780E870E084
:100AB00060E008959FEF80EC089500240A941616D4
:100AC000170618060906089500240A94121613063C
:100AD000140605060895092E0394000C11F48823CA
:100AE00052F0BB0F40F4BF2B11F460FF04C06F5FE6
:100AF0007F4F8F4F9F4F089557FD9058440F551FBC
:100B000059F05F3F71F04795880F97FB991F61F08F
:100B10009F3F79F087950895121613061406551F06
:100B2000F2CF4695F1DF08C0161617061806991F72
:100B3000F1CF86957105610508940895E894BB2767
:100B400066277727CB0197F908950E94B8050C9482
:100B50006B050E945D0538F00E94640520F0952326
:100B600011F00C9454050C945A0511240C949F0513
:100B70000E947C0570F3959FC1F3950F50E0551FBF
:100B8000629FF001729FBB27F00DB11D639FAA27E2
:100B9000F00DB11DAA1F649F6627B00DA11D661F31
:100BA000829F2227B00DA11D621F739FB00DA11D52
:100BB000621F839FA00D611D221F749F3327A00D0C
:100BC000611D231F849F600D211D822F762F6A2FA8
:100BD00011249F5750409AF0F1F088234AF0EE0F0D
:100BE000FF1FBB1F661F771F881F91505040A9F73A
:100BF0009E3F510580F00C9454050C949F055F3F77
:100C0000E4F3983ED4F3869577956795B795F79575
:100C1000E7959F5FC1F7FE2B880F911D96958795ED
:080C200097F90895F894FFCF45
:0E0C2800436F756E743A00566F6C743A00009C
:00000001FF
